{
  "contractName": "Funder",
  "abi": [
    {
      "inputs": [],
      "name": "numberOfFunders",
      "outputs": [
        {
          "internalType": "uint256",
          "name": "",
          "type": "uint256"
        }
      ],
      "stateMutability": "view",
      "type": "function"
    },
    {
      "stateMutability": "payable",
      "type": "receive"
    },
    {
      "inputs": [],
      "name": "transfer",
      "outputs": [],
      "stateMutability": "payable",
      "type": "function"
    },
    {
      "inputs": [
        {
          "internalType": "uint256",
          "name": "amount",
          "type": "uint256"
        }
      ],
      "name": "withdraw",
      "outputs": [],
      "stateMutability": "nonpayable",
      "type": "function"
    }
  ],
  "bytecode": "0x608060405234801561001057600080fd5b506102fc806100206000396000f3fe6080604052600436106100385760003560e01c80632e1a7d4d146100445780638a4068dd1461006d578063dc79a7fc146100775761003f565b3661003f57005b600080fd5b34801561005057600080fd5b5061006b600480360381019061006691906101cc565b6100a2565b005b610075610136565b005b34801561008357600080fd5b5061008c61018b565b6040516100999190610208565b60405180910390f35b671bc16d674ec8000081116100ec576040517f08c379a00000000000000000000000000000000000000000000000000000000081526004016100e3906102a6565b60405180910390fd5b3373ffffffffffffffffffffffffffffffffffffffff166108fc829081150290604051600060405180830381858888f19350505050158015610132573d6000803e3d6000fd5b5050565b33600160008054815260200190815260200160002060006101000a81548173ffffffffffffffffffffffffffffffffffffffff021916908373ffffffffffffffffffffffffffffffffffffffff160217905550565b60005481565b600080fd5b6000819050919050565b6101a981610196565b81146101b457600080fd5b50565b6000813590506101c6816101a0565b92915050565b6000602082840312156101e2576101e1610191565b5b60006101f0848285016101b7565b91505092915050565b61020281610196565b82525050565b600060208201905061021d60008301846101f9565b92915050565b600082825260208201905092915050565b7f596f752063616e2077697468647261772077697468696e20746865207370656360008201527f6966696572206c696d6974000000000000000000000000000000000000000000602082015250565b6000610290602b83610223565b915061029b82610234565b604082019050919050565b600060208201905081810360008301526102bf81610283565b905091905056fea264697066735822122031f28419bea5907758262afe893000ef34fbe8caad72373443d0599e08d380f964736f6c63430008110033",
  "immutableReferences": {},
  "source": "//SPDX-License-Identifier: MIT\r\npragma solidity ^0.8.6;\r\n\r\ncontract Funder\r\n{\r\n        uint public numberOfFunders;\r\n\r\n        mapping(uint=>address) private funders;\r\n\r\n         receive() external payable{}\r\n\r\n        function transfer()external payable {\r\n            funders[numberOfFunders] = msg.sender;\r\n        }\r\n\r\n        function withdraw(uint amount) external {\r\n            require(amount>2000000000000000000,\"You can withdraw within the specifier limit\");\r\n            payable(msg.sender).transfer(amount);\r\n        }\r\n}",
  "sourcePath": "C:\\Users\\USER\\Desktop\\ethereumdapp\\contracts\\Funder.sol",
  "compiler": {
    "name": "solc",
    "version": "0.8.17+commit.8df45f5f.Emscripten.clang"
  },
  "schemaVersion": "3.4.11",
  "updatedAt": "2022-12-19T05:59:24.471Z",
  "devdoc": {
    "kind": "dev",
    "methods": {},
    "version": 1
  },
  "userdoc": {
    "kind": "user",
    "methods": {},
    "version": 1
  }
}